:020000040800F2
:103000002820002009310008095A00080B5A00083E
:103010000D5A00080F5A0008115A0008000000005D
:10302000000000000000000000000000135A00082B
:10303000155A000800000000175A0008195A000825
:10304000233100082331000823310008935A000877
:103050002331000823310008233100082331000800
:1030600023310008233100082331000823310008F0
:1030700023310008233100082331000823310008E0
:1030800023310008233100082331000823310008D0
:1030900023310008233100082331000823310008C0
:1030A00023310008233100082331000823310008B0
:1030B000233100082562000823310008233100086D
:1030C0002331000823310008233100082331000890
:1030D00023310008235A0008AF6200085B5A000839
:1030E000233100082331000823310008DFF80CD019
:1030F00005F0E0FD00480047A1500008282000200E
:1031000080F308887047000006488047064800475B
:10311000FEE7FEE7FEE7FEE7FEE7FEE7FEE7FEE787
:10312000FEE7FEE7D5310008ED3000080CB50022BF
:10313000019200925148016841F4803101604FF4DE
:10314000A063016801F4003100910199491C0191CB
:10315000009911B901999942F3D10168890302D507
:103160000121009100E000920099012930D14449E9
:103170000A6842F010020A600A6822F003020A603C
:103180000A6842F002020A60416841604168416099
:10319000416841F480614160416821F47C114160E3
:1031A000416841F4E8114160016841F080710160BB
:1031B00001688901FCD5416821F003014160416843
:1031C00041F0020141604168C1F381010229FAD155
:1031D0000CBDABE710B52948016841F00101016061
:1031E0004168284A114041600168274A1140016046
:1031F000016821F480210160416821F4FE014160F1
:103200004FF41F018160FFF7E4FF21491F48086068
:1032100010BD10B5194A506800F00C011D4B1E4836
:1032200000290ED004290ED008290ED00360516861
:10323000194AC1F30311121D515C0268CA400260B1
:1032400010BD0360F3E70360F1E7516801F470110A
:10325000536803F48033022404EB914133B1536883
:103260009B0307D50D4B59430160E0E70B4B5943D6
:103270000160DCE7074B59430160D8E700100240CA
:10328000002002400000FFF8FFFFF6FE00300008BB
:1032900008ED00E000127A000000002000093D0067
:1032A0002A4908432A490860704770B50F23C2783D
:1032B00001260178002A1ED0254A126802F4E06235
:1032C000C2F5E062120AC2F10404D3404578A54079
:1032D00082781A402A43120101F1E02181F800248A
:1032E000007800F01F018E404009800000F1E020CE
:1032F000C0F8006170BD01F01F00864048098000E1
:1033000000F1E020C0F8806170BD124A1140014315
:103310000F48001F016070470D4A121D002903D09D
:103320001168014311607047116881431160704753
:103330004FF0E021042804D0086920F0040008615F
:103340007047086940F00400086170470000FA0502
:103350000CED00E080FFFF1FFE4A116801F038010C
:10336000014311607047FB490A6822F008020A60B5
:103370000A6802430A607047F6490A6822F01002A0
:103380000A600A6802430A607047F248F2494160E5
:10339000F24941607047EF48EF494160EF494160B1
:1033A0007047EC48016941F0800101617047E948CC
:1033B000016941F08001016170470420E549CA6854
:1033C000D20701D001207047CA68520701D50220F8
:1033D0007047C968C906FBD50320704700B503468E
:1033E000FFF7EBFF02E0FFF7E8FF5B1E012801D1CA
:1033F000002BF8D1002B00D1052000BD70B505468B
:103400004FF430263046FFF7E9FF042811D1D14CA4
:10341000206940F0020020616561206940F04000B1
:1034200020613046FFF7DAFF216941F6FD72114055
:10343000216170BD30B54FF430252846FFF7CEFF2F
:10344000042810D1C34C206940F004002061206999
:1034500040F0400020612846FFF7C0FF216941F697
:10346000FB721140216130BD00B50346FFF7A5FF97
:1034700002E0FFF7A2FF5B1E012801D1002BF8D16B
:10348000002B00D1052000BD30B54FF43025284673
:10349000FFF7EAFF042810D1AE4C206940F0040089
:1034A0002061206940F0400020612846FFF7DCFFE2
:1034B000216941F6FB721140216130BD0020A54910
:1034C000C969890700D50120704770B5A525FFF7A8
:1034D000F5FF00B100254FF430263046FFF77EFFA0
:1034E000042818D19B4C9C48A0609C48A06020698F
:1034F00040F020002061206940F04000206130460B
:10350000FFF76CFF41F6EF76042805D0052802D0BE
:1035100021693140216170BD206941F6DF710840A9
:103520002061206940F0100020618D4805804FF433
:103530000050FFF753FF0528EDD02169314021618C
:1035400070BD2DE9F84105460E46002000904FF46D
:1035500000573846FFF742FF04280FD17D4C206901
:1035600040F0010020612E80B8464046FFF736FF4C
:10357000BF1E042804D0216939402161BDE8F881CB
:10358000AD1C00950099300C08804046FFF726FFDF
:10359000216939402161F1E7F0B506460D464FF447
:1035A00000573846FFF71AFF04280CD1694C2069F0
:1035B00040F00100206135803846FFF70FFF216998
:1035C000BA1E11402161F0BDF0B505460E464FF41C
:1035D00000573846FFF702FF042813D15D4C5E48C0
:1035E000A0605E48A060206940F0100020612E803D
:1035F0003846FFF7F3FE052804D0216941F6EF7243
:1036000011402161F0BD2DE9F043C043C4B2C0F3C5
:103610000725C0F30746070E4FF400594846FFF749
:10362000DDFE04283CD1DFF82C814B49C8F8081096
:103630004A49C8F80810D8F8101041F01001C8F82D
:103640001010FF2C05D04648083004804846FFF78C
:10365000C5FE042807D1FF2D05D041480A3005805A
:103660004846FFF7BBFE042807D1FF2E05D03C4893
:103670000C3006804846FFF7B1FE042807D1FF2F23
:1036800005D037480E3007804846FFF7A7FE0528CB
:1036900006D0D8F8101041F6EF721140C8F810109B
:1036A000BDE8F08370B505464FF430263046FFF78D
:1036B00095FE042818D1274C2748A0602748A06011
:1036C000206940F020002061206940F04000206126
:1036D0003046FFF783FE41F6DF71042805D0052848
:1036E00002D022690A40226170BD20690840206131
:1036F000206940F010002061194815B100210180B7
:1037000001E0A52101803046FFF768FE0528EBD0D7
:10371000216941F6EF721140216170BD2DE9F04140
:1037200006460D4617460B4C0B48A0600B48A060A0
:103730004FF400584046FFF751FE04281DD1206980
:1037400040F0100020613D433543054945F0F80045
:10375000891C07E00020024023016745AB89EFCDBB
:1037600000F8FF1F08804046FFF738FE052804D008
:10377000216941F6EF7211402161BDE8F0811E48D8
:10378000C069800870471C48006A704700201A49C9
:103790000968890600D501207047174A002903D01F
:1037A00011690143116170471169814311617047CB
:1037B00001460020104A012904D0D2680A4200D0F4
:1037C00001207047D169C907FBD0012070470A4921
:1037D000C860704704200849CA68D20701D0012098
:1037E0007047CA68520701D502207047C968C906E8
:1037F000FBD50320704700000020024010B59C4913
:10380000884209D10121042000F09BFA0021BDE883
:103810001040042000F095BA9649884209D1012150
:10382000082000F08EFA0021BDE81040082000F0CA
:1038300088BA9149884209D10121102000F081FA0B
:103840000021BDE81040102000F07BBA8B4988426F
:1038500009D10121202000F074FA0021BDE81040B8
:10386000202000F06EBA8649884209D1012140200B
:1038700000F067FA0021BDE81040402000F061BA76
:103880008049884209D10121802000F05AFA0021A4
:10389000BDE81040802000F054BA7B4988420AD12C
:1038A00084150121204600F04CFA2046BDE8104066
:1038B000002100F046BA10BD10B50121084600F005
:1038C00040FA0021BDE81040012000F03ABA2DE98D
:1038D000F0410022CC7804F00F03E40601D58C7887
:1038E00023430C784FF00F0714F0FF0F4FF0010C3B
:1038F0001CD005680CFA02F40E882640A64211D1AD
:10390000960007FA06F825EA080503FA06F848EAD9
:103910000505CE78282E02D0482E02D002E0446160
:1039200000E00461521C082AE4D305600A88FF2ADB
:103930001ED94568002202F108060CFA06F40E882A
:103940002640A64210D1960007FA06F825EA080597
:1039500003FA06F848EA0505CE78282E00D144611E
:10396000CE78482E00D10461521C082AE3D345606A
:10397000BDE8F0814FF6FF710180022181700421C2
:10398000C17070470246002092680A4200D00120B0
:103990007047806880B2704702460020D2680A42B1
:1039A00000D001207047C06880B270470161704745
:1039B00041617047002A01D0016170474161704741
:1039C000C160704741F480328261816182618169A6
:1039D0008069704710B52D4B1A684FF680742240ED
:1039E00042EA00100843186010BD2949C8617047B9
:1039F000F0B5264C002801DAE36900E06368C0F303
:103A00000346420D120185B2C0F301579540032FC2
:103A100007D0C2020CD50322B240934343F0706238
:103A200009E023F07062636823F07063636002E072
:103A3000AB4343F0706201B12A43002801DAE2612E
:103A4000F0BD6260F0BD10B58A07120F0F239340DE
:103A500021F003040D4921448C689C438C608B68E1
:103A6000904003438B6010BD0949DC31086070470A
:103A700000080140000C014000100140001401400A
:103A800000180140001C01400020014000000140DE
:103A9000000020420D49086070470C49486070479B
:103AA0000A498860704709494AF6AA2008607047A9
:103AB00006494CF6CC400860704701460020034A96
:103AC000D2680A4200D00120704700000030004058
:103AD000B448016841F0010101604168B24A1140F7
:103AE00041600168B14A11400160016821F4802100
:103AF0000160416821F4FE0141604FF41F018160C3
:103B00007047A8490A6822F480320A600A6822F4E1
:103B100080220A60B0F5803F07D0B0F5802F03D136
:103B2000086840F4A02008607047086840F48030BE
:103B3000086070470346002059099A4A01290AD0B3
:103B400002290AD0516A03F01F02012393400B425D
:103B500000D0012070471168F5E7116AF3E718B546
:103B6000002000904FF4A0643120FFF7E3FF00999C
:103B7000491C00910099A14201D00028F4D03120C5
:103B8000FFF7D8FF08B1012018BD002018BD854AF5
:103B9000116821F0F80141EAC000106070478449C3
:103BA000086070477F4B5A6822F47C120843104328
:103BB000586070477E49086670477A4A516821F01C
:103BC00003010143516070477648406800F00C00E3
:103BD0007047744A516821F0F00101435160704709
:103BE000704A516821F4E0610143516070476D4AA9
:103BF000516821F4605141EAC00050607047694A41
:103C0000002903D0517A014351727047517A8143A0
:103C1000517270476649D83108607047614A5168EF
:103C200021F440410143516070475E490022203138
:103C30000A7001F82029012805D0042802D10520A6
:103C400081F820007047012081F820007047594911
:103C50000860704753490A6A02430A62704755492F
:103C600044390860704710B54E4A516801F00C01A4
:103C7000514B002927D0042927D0082927D00360D9
:103C8000516801F0F00109094C4B5C5C0168E140AE
:103C90004160546804F4E064240A1C5D21FA04F4D1
:103CA0008460546804F46054E40A1B5DD940C16028
:103CB000526802F44042920B404B1B1F9A5CB1FBCE
:103CC000F2F1016110BD0360DAE70360D8E75168E3
:103CD00001F47011536803F48033022404EB914122
:103CE00033B153689B0307D5354B59430160C7E790
:103CF000334B59430160C3E72F4B59430160BFE782
:103D0000284A002903D05169014351617047516924
:103D1000814351617047234A002903D091690143CF
:103D20009161704791698143916170471D4A0029F3
:103D300003D0D1690143D1617047D1698143D16119
:103D40007047184A002903D0D1680143D1607047F9
:103D5000D1688143D1607047124A002903D01169AC
:103D60000143116170471169814311617047114925
:103D70004039086070470E49C86470470949C871E6
:103D800070470848416A41F08071416270470146BE
:103D90000020044A92680A4200D00120704701497D
:103DA00088727047001002400000FFF8FFFFF6FE27
:103DB000000042428004424200127A0018000020B3
:103DC00000093D00434A002903D0118801431180B6
:103DD000704711888143118070473E48001D01885B
:103DE00041F01001018070473A48001D018821F020
:103DF00010010180704737481C3000883549183160
:103E0000098840EA0140704700B50246FFF7E5FF28
:103E10003049100C18310880081D02805DF804EB51
:103E2000E2E700B50246FFF7D8FF2A49C2F3034094
:103E300008310880081D02805DF804EBD4E700B566
:103E40000246FFF7CAFF2349100C20310880081DE5
:103E500002805DF804EBC7E71E48103000880007B9
:103E6000010B1C4814300088084370471948001D96
:103E700001888906FCD570471648001D018821F08D
:103E80000801018001880907FCD570470146002020
:103E9000104A121D12880A4200D0012070470D49B5
:103EA000091D0A8882430A8070470A49091D09884A
:103EB000C2B21140074A1288024202D009B1012061
:103EC0007047002070470349091D0A8882430A8011
:103ED000704700000028004010B5FE4988420AD112
:103EE000C41401212046FFF72CFF2046BDE81040F6
:103EF0000021FFF726BFB0F1804F0CD0F649884271
:103F000013D101210220FFF727FF0021BDE8104057
:103F10000220FFF721BF01210846FFF71DFF002106
:103F2000BDE810400120FFF717BFEC49884209D1D6
:103F300001210420FFF710FF0021BDE810400420FC
:103F4000FFF70ABFE649884209D101210820FFF79F
:103F500003FF0021BDE810400820FFF7FDBEE14946
:103F6000884209D101211020FFF7F6FE0021BDE8AB
:103F700010401020FFF7F0BEDB49884209D1012133
:103F80002020FFF7E9FE0021BDE810402020FFF7C8
:103F9000E3BED64988420AD1441401212046FFF7E6
:103FA000D0FE2046BDE810400021FFF7CABED04930
:103FB00088420AD10121CC042046FFF7C2FE2046E8
:103FC000BDE810400021FFF7BCBECA4988420AD1B3
:103FD00001210C052046FFF7B4FE2046BDE8104045
:103FE0000021FFF7AEBEC44988420AD101214C0529
:103FF0002046FFF7A6FE2046BDE810400021FFF74F
:10400000A0BEBE49884209D101214020FFF7A4FE8D
:104010000021BDE810404020FFF79EBEB84988420D
:1040200009D101218020FFF797FE0021BDE8104053
:104030008020FFF791BEB34988420AD1841501213F
:104040002046FFF789FE2046BDE810400021FFF71B
:1040500083BEAD4988420AD101210C042046FFF7F6
:1040600070FE2046BDE810400021FFF76ABEA74958
:1040700088420AD101214C042046FFF762FE204607
:10408000BDE810400021FFF75CBEA14988420AD17B
:1040900001218C042046FFF754FE2046BDE8104065
:1040A0000021FFF74EBE10BD30B50288894C8F4D00
:1040B000A0420DD0A8420BD0B0F1804F08D0864B63
:1040C000984205D0854B984202D0854B984203D147
:1040D00022F070034A881A43824B984206D0824BE2
:1040E000984203D022F44073CA881A4302808A8817
:1040F00082850A880285A0420AD0A84208D0824A56
:10410000904205D0814A904202D0814A904201D12A
:10411000097A01860121818230BD30B5028C22F0FE
:1041200001020284028C8388048B24F0700424F042
:1041300003050C882C4322F002020D8915434A889E
:104140002A43644DA8420BD0684DA84208D06E4D5A
:10415000A84205D06D4DA84202D06D4DA8420FD1A6
:1041600022F008054A892A4322F004058A882A4356
:1041700023F4807323F400738D891D43CB892B4373
:1041800083800483C9888186028430BD70B5028C27
:1041900022F010020284028C8388048B24F4E04411
:1041A00024F440760D884FF6FF7404EA0525354364
:1041B00022F020020E8904EA061616434A8804EA11
:1041C00002123243434EB04202D0484EB04217D1A1
:1041D00022F080024E8904EA0616164326F04006B5
:1041E0008A8804EA0212324323F4806323F40063D2
:1041F0008E8904EA86061E43CB8904EA830333438F
:1042000083800583C9880187028470BD70B5028CE4
:1042100022F480720284028C8388848B24F07004E0
:1042200024F003040D88254322F400720E894FF612
:10423000FF7404EA062616434A8804EA022232433F
:10424000244EB04202D0294EB04217D122F400666B
:104250004A8904EA0222324322F480668A8804EA08
:104260000222324323F4805323F400538E8904EA5C
:1042700006161E43CB8904EA0313334383808583E8
:10428000C9888187028470BD70B5028C22F4805287
:104290000284058C8288838B23F4E04323F44076E8
:1042A0000C884FF6FF7303EA0424344325F40055C9
:1042B0000E8903EA06362E434D8803EA0535354359
:1042C000044EB04202D0094EB04226D122F48046BC
:1042D0008A891FE0002C01400004004000080040D3
:1042E000000C004000100040001400400034014069
:1042F000004C0140005001400054014000180040B3
:10430000001C0040002000400040014000440140EB
:104310000048014003EA8212324382808483C988C4
:10432000A0F84010058470BD828B22F44062828325
:10433000828B4FF6FF7303EA01210A4382837047A1
:10434000F0B5048C24F480540484868B048C4FF6DE
:10435000FF7505EA013726F4734605EA0222324367
:1043600005EA03331343F74A90420ED0F64A9042CF
:104370000BD0B0F1804F08D0F44A904205D0F44AF7
:10438000904202D0F34A904205D124F400513943BF
:1043900041F4805104E024F402420A4342F4805183
:1043A00083830184F0BD828B22F00C028283828B96
:1043B0000A4382837047F0B5048C24F4807404842B
:1043C000858B048C4FF6FF7707EA012625F0F3056D
:1043D00007EA031313432B43DA4A90420ED0DA4A1A
:1043E00090420BD0B0F1804F08D0D84A904205D00F
:1043F000D74A904202D0D74A904205D124F40071A6
:10440000314341F4807104E024F420620A4342F411
:10441000807183830184F0BD028B22F440620283A9
:10442000028B4FF6FF7303EA01210A4302837047B0
:10443000F0B5048C24F010040484068B048C4FF631
:10444000FF7505EA011726F4734605EA0333334383
:1044500005EA02221A43BB4B98420ED0BA4B98424F
:104460000BD0B0F1804F08D0B84B984205D0B84B74
:10447000984202D0B74B984205D124F0200139432D
:1044800041F0100104E024F0A0030B4343F01001BD
:1044900002830184F0BD028B22F00C020283028BA6
:1044A0000A430283704770B5048C24F0010404842D
:1044B000058B048C25F0F3054FF6FF7606EA03130F
:1044C00013432B439F4A90420ED09F4A90420BD0F9
:1044D000B0F1804F08D09D4A904205D09C4A90424E
:1044E00002D09C4A904205D124F002020A4342F0D5
:1044F000010104E024F00A020A4342F001010383AF
:10450000018470BD70B505460C468E48854209D0C1
:104510008D48854206D0B5F1804F03D08B48854247
:1045200000D08B4820886188A288238958B104284C
:1045300011D0082817D02846FFF702FFE188284647
:10454000BDE87040F0E62846FFF7ADFFE188284659
:10455000BDE870409FE72846FFF76AFFE1882846DC
:10456000BDE8704058E72846FFF725FFE188284658
:10457000BDE8704017E72DE9F04107460C460025DD
:1045800001266188002900D10225A288012A00D1D4
:1045900002262088238988B13846FFF749FFE18841
:1045A0003846FFF739FF2389324629463846FFF758
:1045B0007AFFE1883846BDE8F0416CE73846FFF7FE
:1045C00072FFE1883846FFF766FF238932462946A5
:1045D0003846FFF72DFFE1883846BDE8F0411BE77C
:1045E00010B50A884B88CC881A438B8823431A431A
:1045F0000B891A434B8989891A430A43A0F844203E
:1046000010BD4FF6FF71818000210180C180418083
:10461000017270470021018041808180C180018149
:1046200041818181C1817047002101804180012247
:104630008280C1800181704700210180418081809A
:10464000C1800181418181817047002904D00188A6
:1046500041F0010101807047018821F001010180D2
:104660007047002905D030F8441F41F40041018013
:10467000704730F8441FC1F30E0101807047002AD3
:1046800003D082890A438281704782898A4382816A
:104690007047818270471143A0F848107047002A84
:1046A00003D082890A438281704782898A4382814A
:1046B0007047018921F0070101817047028922F0CA
:1046C00070020A430281704700B503461846FFF79F
:1046D000F5FF188940F00700188100BD70B50D4640
:1046E00004461146602D0CD001222046FFF7DBFE68
:1046F00029462046FFF7E2FF208940F0070020818D
:1047000070BD01222046FFF793FEF1E730B5048922
:10471000E4B24FF6FF7505EA032313430B4323432B
:10472000038130BD10B504462046FFF7EFFF208916
:1047300020F0070040F0070020F0700040F070000B
:10474000208110BD002C01400034014000040040D5
:1047500000080040000C004010B504462046FFF75A
:10476000D5FF208940F480402081EAE701858282DC
:104770007047028822F070020A430280704770B5C9
:104780000589048B068C25F007050D434FF6FC4187
:104790000C4040F201110C4326F022064FF6FF7147
:1047A00001EA03111143314305810483018470BD83
:1047B000028B22F070020A4302837047028B22F4BC
:1047C000E0424FF6FF7303EA012111430183704772
:1047D000828B22F070020A4382837047828B22F41C
:1047E000E0424FF6FF7303EA0121114381837047D2
:1047F000002904D0018841F08001018070470188C0
:1048000021F0800101807047002904D0818841F0A7
:10481000040181807047818821F004018180704704
:10482000002904D0818841F0080181807047818887
:1048300021F0080181807047002904D0818841F06F
:10484000010181807047818821F0010181807047DA
:10485000028B22F008020A4302837047028B22F483
:1048600000624FF6FF7303EA012111430183704791
:10487000828B22F008020A4382837047828B22F4E3
:1048800000624FF6FF7303EA0121114381837047F1
:10489000028B22F004020A4302837047028B22F447
:1048A00080624FF6FF7303EA0121114301837047D1
:1048B000828B22F004020A4382837047828B22F4A7
:1048C00080624FF6FF7303EA012111438183704731
:1048D000028B22F080020A4302837047028BC2F3EC
:1048E0000E024FF6FF7303EA012111430183704763
:1048F000828B22F080020A4382837047828BC2F34C
:104900000E024FF6FF7303EA0121114381837047C2
:10491000028C22F002020A4302847047028C22F0C9
:1049200008020A4302847047028C22F020024FF6EC
:10493000FF7303EA0111114301847047028C22F0D6
:1049400080024FF6FF7303EA01111143018470479F
:10495000028C22F400724FF6FF7303EA0121114327
:1049600001847047028C22F400624FF6FF7303EA61
:104970000121114301847047028C22F400524FF64A
:10498000FF7303EA013111430184704710B501231D
:104990008B40048C9C430484038C8A40134303841F
:1049A000CFE610B504238B40048C9C430484038C15
:1049B0008A4013430384C4E630B500F11803012490
:1049C0008C40058CA5430584002911D008290FD0FF
:1049D000091FC1F34E001844016821F4E041016051
:1049E00001684FF6FF7303EA02221143016030BDF4
:1049F00003EB5100016821F070010160016811436F
:104A0000016030BD002904D0018841F0020101801D
:104A10007047018821F0020101807047002904D00D
:104A2000018841F0040101807047018821F00401F0
:104A300001807047002904D0818841F08001818085
:104A40007047818821F0800181807047028822F0C0
:104A50000802028002880A4302807047828822F09E
:104A60007002828082880A4382807047028922F025
:104A70000702028102890A4302817047028922F0FB
:104A80008002028102890A43028170478184704753
:104A9000818570478186704701877047818770479D
:104AA000A0F840107047028822F440720280028809
:104AB0000A4302807047808E7047008F7047808F56
:104AC0007047B0F840007047808C7047008D704789
:104AD00002460020128A0A4200D001207047C943D2
:104AE0000182704702460020138A0B4092890A40D7
:104AF000002B02D0002A00D001207047C943018258
:104B00007047000010B5E14988420AD101218C03A9
:104B10002046FFF716F92046BDE810400021FFF7B8
:104B200010B9DB4988420AD101214C042046FFF725
:104B300013F92046BDE810400021FFF70DB9D54913
:104B400088420AD101218C042046FFF705F920464E
:104B5000BDE810400021FFF7FFB8CF4988420AD1D5
:104B60000121CC042046FFF7F7F82046BDE81040AD
:104B70000021FFF7F1B8C94988420AD101210C058B
:104B80002046FFF7E9F82046BDE810400021FFF776
:104B9000E3B810BD30B585B004460D46208A4CF60A
:104BA000FF710840E98801432182A0894EF6F31184
:104BB0000840A9882A8911436A8902431143A181C7
:104BC000A08A4FF6FF410840A9890143A1826846A7
:104BD000FFF749F8AD48844201D1039800E00298FC
:104BE000A189090408D500EBC00101EB0010296878
:104BF0004900B0FBF1F007E000EBC00101EB001051
:104C000029688900B0FBF1F06422B0FBF2F10901E0
:104C10000B096FF018056B4300EB8300A3891D049B
:104C20004FF0320307D503EBC000B0FBF2F000F009
:104C30000700084306E003EB0010B0FBF2F000F0C1
:104C40000F000843208105B030BD4FF416510160BC
:104C500000218180C18001810C22428181817047C5
:104C600010B5038A4FF2FF0213400A884C88224392
:104C70008C88C9880C4322431A43028210BD00214C
:104C8000018041808180C1807047002904D08189E2
:104C900041F4005181817047818921F40051818163
:104CA000704710B540F66A13C1F3421301F01F04B8
:104CB0000121A140012B07D0022B07D014303AB1BB
:104CC00002680A43026010BD0C30F8E71030F6E7C6
:104CD00002688A43026010BD002A03D0828A0A4318
:104CE00082827047828A8A4382827047028A22F0D7
:104CF0000F020282028A0A4302827047828922F4EA
:104D00000062828182890A4382817047002904D02F
:104D1000818941F0020181817047818921F002017E
:104D200081817047028A22F020020282028A0A43AD
:104D300002827047002904D0018A41F48041018237
:104D40007047018A21F4804101827047C1F3080154
:104D5000818070478088C0F308007047818941F0E6
:104D6000010181817047028BD2B20283028B42EA39
:104D7000012101837047028B02F47F420283028B80
:104D80000A4302837047002904D0818A41F0200140
:104D900081827047818A21F0200181827047002939
:104DA00004D0818A41F0100181827047818A21F00C
:104DB000100181827047002904D0818A41F00801E6
:104DC00081827047818A21F0080181827047002921
:104DD00004D0818941F40041818170478189C1F308
:104DE0000E0181817047002904D0818A41F400615D
:104DF00081827047818A21F4006181827047828AB2
:104E000022F004028282828A0A4382827047002949
:104E100004D0818A41F0020181827047818A21F0A9
:104E20000201818270470246002012880A4200D0A7
:104E3000012070478A05C9430180704770B500247E
:104E400040F66A12C1F3421301F01F05012606FA6B
:104E500005F2012B0CD0022B0DD0838A1340090AD6
:104E60008E40008830400BB100B10124204670BD57
:104E700083891340F3E7038A1340F0E740F66A1290
:104E80000A0A01219140C94301807047003801405E
:104E90000044004000480040004C004000500040EA
:104EA0002DE9F84301210420FEF735FF01210846D2
:104EB000FEF731FF01218803FEF72DFF4FF400704C
:104EC000ADF8000018248DF8034003268DF8026029
:104ED000DFF8748169464046FEF7F9FC4FF48065BF
:104EE000ADF8005004278DF8037069464046FEF780
:104EF000EEFC01211020FEF70EFF01218804FEF7D1
:104F000015FF01210846FEF706FF01214F48FEF775
:104F10006FFDADF800508DF803408DF802604C4CE9
:104F200069462046FEF7D3FCE114ADF800108DF879
:104F3000037069462046FEF7CAFCBDE8F8832DE9F8
:104F4000FF414FF4E13600960024ADF80440ADF87F
:104F50000640ADF80840ADF80C400C25ADF80A50FD
:104F6000DFF8F08069464046FFF714FE40F225570F
:104F7000012239464046FFF794FE01214046FFF7E3
:104F800084FE40214046FFF755FF0096ADF80440EF
:104F9000ADF80640ADF80840ADF80C40ADF80A5049
:104FA0002D4C69462046FFF7F5FD01223946204683
:104FB000FFF777FE01212046FFF767FE40212046DC
:104FC000FFF738FFBDE8FF8138B525208DF80000D8
:104FD00000248DF801408DF8024001258DF8035022
:104FE0006846FEF762F927208DF800008DF8014031
:104FF0008DF802508DF803506846FEF756F938BD1B
:1050000010B5144C01462046FFF7A0FE8021204633
:10501000FFF709FF0028F9D010BD10B5FFF740FFDA
:10502000FFF78DFFBDE81040CEE770B50446094D8F
:10503000E1B22846FFF78AFE80212846FFF7F3FEFB
:105040000028F9D0204670BD00080140100014006F
:1050500000100140003801400048004010B500F049
:105060007AFD0446E0070AD025A003F055FE002291
:105070001146FE2000F057FF002002F093F9A00730
:105080000DD525A003F048FE0022FE21104600F0B9
:105090004AFF022002F086F926490120087010BD5F
:1050A000FEF798F84FF4A060FEF7FAF800F0C6FF9C
:1050B00000F0A0FE00F017FF00F06BFF00F0FAFC1C
:1050C000FFF7ABFF01F0C1F801F035F9022000F065
:1050D000A5FD01F08EF802F04BF917A003F01CFEBD
:1050E0001AA11DA003F018FE02F0DFFF00F0ACFDD6
:1050F000FFF7B4FF01F07CF8224802F00EFDF5E75F
:105100004B4559312050524553532C5769666920FD
:1051100052657365740D0A004B4559322050524553
:1051200053532C4169724C696E6B206D6F64650D31
:105130000A000000280000204D435520496E697484
:105140002053756363657373200A00003033303376
:1051500030303838000000004D4355206D6D6D6DC6
:105160006D6D496E69742053756363657373202C8C
:1051700020536F667456657273696F6E203D2025EB
:10518000730D0A0094000020002101604160FE4977
:105190008160FE49C160FC49C9430161FB49C943C3
:1051A00041617047F0B5002400230EE0CD18CE5CBD
:1051B0006F7846EA0726AF78ED783F0447EA056541
:1051C0002E4340F82460641C1B1D9342EED3F0BDB7
:1051D0002DE9F041C0B00446D4F800806568A668A7
:1051E000E76840226846FFF7DDFF05EA060027EA88
:1051F00005010843E64908440099414408444FEA40
:105200007060411901EA050026EA01021043E14AF3
:105210001044019A3A4410444FEA3050431803EACC
:10522000010025EA03021043DB4A1044029A32448B
:1052300010444FEAF030184400EA030221EA000665
:105240003243D64E3244039E35442A444FEAB222BA
:10525000024402EA000523EA02063543D04E3544F3
:10526000049E314429444FEA7161114401EA020568
:1052700020EA01063543CB4E3544059E33442B448A
:105280004FEA33535D1805EA010322EA050633436A
:10529000C54E3344069E304418444FEAF03043195B
:1052A00003EA050021EA03063043C04E3044079E5E
:1052B000324410444FEAB020C21802EA030025EA43
:1052C00002063043BA4E3044089E314408444FEA47
:1052D0007060811801EA020023EA01063043B54EEE
:1052E0003044099E354428444FEA3050084400EACF
:1052F000010522EA000635430A9EA5F524454F3DE7
:1053000033442B444FEAF3331D1805EA000321EA26
:1053100005063343A84E33440B9E32441A444FEAE9
:10532000B2222A4402EA050320EA02063343A34ECE
:1053300033440C9E314419444FEA71618B1803EADF
:10534000020125EA030631439D4E31440D9E30444F
:1053500008444FEA3050C11801EA030022EA01066E
:105360003043984E30440E9E354428444FEAF03086
:10537000084400EA010523EA00063543924E35440D
:105380000F9E32442A444FEAB222151805EA010260
:1053900020EA010632438D4E3244019E33441A44C2
:1053A0004FEAF2622A4402EA000325EA0006334388
:1053B000874E3344069E314419444FEAF1518B180D
:1053C00003EA050122EA05063143824E31440B9E71
:1053D000304408444FEAB040C11801EA020023EA11
:1053E000020630437C4E3044009E354428444FEA48
:1053F0003030084400EA030521EA03063543774EBE
:105400003544059E32442A444FEAF262024402EADD
:10541000010520EA01063543714E35440A9E3344A6
:105420002B444FEAF353134403EA000522EA000633
:1054300035436C4E35440F9E314429444FEAB14107
:10544000194401EA020523EA02063543664E354453
:10545000049E304428444FEA3030084400EA0305F3
:1054600021EA03063543614E3544099E32442A44FD
:105470004FEAF262024402EA010520EA01063543DE
:105480005B4E35440E9E33442B444FEAF353134492
:1054900003EA000522EA00063543564E3544039ED2
:1054A000314429444FEAB141194401EA020523EA93
:1054B00002063543504E3544089E304428444FEA96
:1054C0003030084400EA030521EA030635434B4E19
:1054D00035440D9E32442A444FEAF262024402EA05
:1054E000010520EA01063543454E3544029E33440A
:1054F0002B444FEAF353134403EA000522EA000663
:105500003543404E3544079E314429444FEAB1416A
:10551000194401EA020523EA020635433A4E3544AE
:105520000C9E304428444FEA30300844059D374EE5
:10553000154480EA01025A4032442A444FEA32724A
:105540000244089D324E1D4482EA00034B4033441E
:105550002B444FEA735313440B9D2E4E0D4483EAA4
:1055600002014140314429444FEA314119440E9D22
:10557000294E054481EA03005040304428444FEA54
:1055800070200844019D49E00123456789ABCDEFB8
:1055900078A46AD756B7C7E8DB702024EECEBDC129
:1055A000AF0F7CF52AC68747134630A8019546FD04
:1055B000D8988069AFF7448BBED75C892211906B75
:1055C000937198FD8E4379A62108B44962251EF691
:1055D00040B340C0515A5E26AAC7B6E95D102FD627
:1055E0005314440281E6A1D8C8FBD3E7E6CDE121FC
:1055F000D60737C3870DD5F4ED145A4505E9E3A95D
:10560000F8A3EFFCD9026F678A4C2A8D4239FAFF62
:1056100081F6718722619D6D0C38E5FD154480EAA5
:105620000102DC4E5A4032442A444FEA32720244AC
:10563000049DD94E1D4482EA00034B4033442B4461
:105640004FEA73531344079DD44E0D4483EA02017D
:105650004140314429444FEA3141CD180A99D04E96
:10566000014485EA03005040304408444FEA70206A
:1056700028440D99CB4E0A4480EA05015940314433
:1056800011444FEA31710144009AC74E134481EA34
:1056900000026A4032441A444FEA72525318039A85
:1056A000C24E154483EA0102424032442A444FEA82
:1056B00032421A44069DBE4E054482EA0300484029
:1056C000304428444FEA70201044099DB94E0D44DF
:1056D00080EA02015940314429444FEA31710144C2
:1056E0000C9DB54E1D4481EA0003534033442B44C6
:1056F0004FEA73535D180F9BB04E134485EA0102C5
:10570000424032441A444FEA32422A44029BAC4E91
:10571000034482EA05004840304418444FEA7020B0
:1057200083180098A74E014463EA050050403044B6
:1057300008444FEAB06018440799A34E0D4460EA4C
:1057400002015940314429444FEAB1510D180E99D4
:105750009E4E0A4465EA03014140314411444FEA38
:1057600071412944059A9A4E134461EA00026A4045
:1057700032441A444FEAF2220A440C9B954E0344E9
:1057800062EA05004840304418444FEAB0601044D3
:10579000039B914E1D4460EA0103534033442B4464
:1057A0004FEAB3531D180A9B8C4E0B4465EA020165
:1057B0004140314419444FEA71414B190199884ED7
:1057C0000A4463EA00016940314411444FEAF1217F
:1057D000CA180899834E014462EA050058403044D3
:1057E00008444FEAB06081180F987F4E054461EA83
:1057F00003005040304428444FEAB0504518069802
:105800007A4E034465EA02004840304418444FEAA7
:10581000704028440D9B764E134460EA01026A40B2
:1058200032441A444FEAF2220244049B714E0B4464
:1058300062EA05014140314419444FEAB161114423
:105840000B9B6D4E1D4461EA0003534033442B44CF
:105850004FEAB3530B44029D684E054463EA0200CD
:105860004840304428444FEA70401844099D644E33
:10587000154460EA01025A4032442A444FEAF222B7
:105880000244256829442160616811446160A1686F
:105890000844A060E0681844E06040B0BDE8F081D2
:1058A0002DE9F04705468846164600242968C1F3CD
:1058B000C500C0F1400701EBC6012960B1EBC60F7E
:1058C00002D26968491C6960696801EB56716960B8
:1058D000BE421AD3284418303A46414603F068F8CD
:1058E00005F1080005F118018146FFF771FC3C46FF
:1058F00005E008EB04014846FFF76AFC3C4604F16A
:1059000040000746B042F4D90020321B284408EB7F
:105910000401BDE8F047183003F04AB870B5002321
:10592000002411E011F82350055531F823502E0AB8
:1059300005196E7051F82360360CAE7051F8236073
:10594000360EEE705B1C241D9442EBD370BD7CB50B
:1059500005460E462888C0F3C500382802D2C0F19B
:10596000380401E0C0F17804082229466846FFF7B0
:10597000D5FF224623492846FFF792FF08226946B1
:105980002846FFF78DFF102205F108013046FFF78A
:10599000C5FF7CBD44EABEA4A9CFDE4B604BBBF67D
:1059A00070BCBFBEC67E9B28FA27A1EA8530EFD423
:1059B000051D880439D0D4D9E599DBE6F87CA21F0F
:1059C0006556ACC4442229F497FF2A43A72394AB1D
:1059D00039A093FCC3595B6592CC0C8F7DF4EFFF2B
:1059E000D15D84854F7EA86FE0E62CFE144301A3B1
:1059F000A111084E827E53F735F23ABDBBD2D72AA9
:105A000091D386EB290000207047FEE7FEE7FEE712
:105A1000FEE77047704770474FF0E0210020886133
:105A2000704770B5214C40F2255529462046FFF7B6
:105A300005FA002810D029462046FFF71FFA204615
:105A4000FFF788F901462046FFF780F980212046BC
:105A5000FFF7E9F90028F9D070BD70B5144C40F299
:105A6000255529462046FFF7E9F9002810D0294698
:105A70002046FFF703FA2046FFF76CF9014620465F
:105A8000FFF764F980212046FFF7CDF90028F9D00F
:105A900070BD10B50120FEF708FA002804D0BDE85B
:105AA00010400120FEF70FBA10BD00000038014081
:105AB0000048004008B501211C20FEF72CF9032006
:105AC0008DF8020048208DF803004FF48060ADF897
:105AD000000069464C48FDF7FAFE4FF48070ADF8BF
:105AE000000069464948FDF7F2FE4FF40050ADF85A
:105AF000000069464648FDF7EAFE08BD7FB504464A
:105B00000D4601210220FEF711F9ADF80840ADF86D
:105B100004500024ADF80A40ADF806403D4D01A9FF
:105B20002846FEF7C1FA012211462846FEF7A7FDD6
:105B30001D218DF800108DF8014002218DF8021012
:105B400001218DF803106846FDF7AFFB01212846BF
:105B5000FEF77BFD7FBD10B54FF480612A48FDF74D
:105B600011FF08B944F001044FF480712748FDF794
:105B700009FF08B944F002044FF400512448FDF72E
:105B800001FF08B944F00404204610BD70B5224C52
:105B900001260025E0780A2801D3E57026702078D8
:105BA00001282FD12570FFF7D6FF617831B1012987
:105BB00008D002290ED0032924D11FE010B3A07011
:105BC00066701FE0A178884202D10220607019E05F
:105BD000657017E0A178884204D06570A58041F017
:105BE000200070BDA188491C89B2A180642909D315
:105BF000A5800321617040F0800070BDA1788842CB
:105C000000D06570002070BD000C0140000801400C
:105C100000100140000400406A00002070B5042418
:105C200040F27121484385B245F25550FDF732FFED
:105C30002046FDF732FF2846FDF732FFFDF733FF20
:105C4000BDE87040FDF734BF02494AF6AA2008605B
:105C5000704700000030004070B505460C46584BB8
:105C600004221A70FDF791FB3420FDF7B0FD04EB20
:105C70008520FDF7C3FBBDE87040FDF792BB70B512
:105C80000E464FF48061884200D20846810504D058
:105C9000012101EB9025002406E0850AFBE7E0B234
:105CA0003146FFF7D9FF641CAC42F8D370BD2DE933
:105CB000F04106460F4615460024DFF80481042013
:105CC00088F800003F48854204D33F48C8F80400E4
:105CD000BDE8F081FDF759FB3420FDF778FD07E0C2
:105CE00036F8141005EB4400FDF756FC641CA4B212
:105CF000BC4203D298F800000428F1D0BDE8F0417E
:105D0000FDF74FBB10B5002305E032F8134020F833
:105D100013405B1C9BB28B42F7D310BD70B5C0B073
:105D200006460C461546EE224FF48071684602F096
:105D300051FE22463146684602F03AFEE00701D0A5
:105D4000641CA4B261082A466846FFF7B0FF40B061
:105D500070BD30B5C1B005460C46E0070CD0601CE4
:105D600081B2490801A8FFF7CDFF224601A92846C4
:105D700002F01EFE41B030BD610801A8FFF7C2FF6E
:105D8000224601A9284602F013FEF3E770B5044647
:105D900020680E490840B0F1005F04D0BDE87040B3
:105DA0000BA002F0B9BF0EA002F0B6FF6068044D70
:105DB000A8602068FDF7A4F9A868BDE87040004716
:105DC0007000002000000108009800080000FE2F6D
:105DD000537461636B204661696C6564210D0A0030
:105DE000537461636B2053756363657373210D0A8C
:105DF0000000000008B501210420FDF78CFF0320FE
:105E00008DF8020010208DF803000120ADF800008D
:105E100069464F48FDF75BFD08BD08B500210091BC
:105E200002E00099491C009100998142F9D308BD14
:105E300070B5484D4FF4807421462846FDF7B8FDF3
:105E40002820FFF7EAFF21462846FDF7AFFDBDE811
:105E500070402820E1E710B54FF400713D48FDF790
:105E6000A7FD0024FFF7E4FF641CE4B2202CF9D363
:105E700010BDC043C0F3811070472DE9F0410546C5
:105E80000024344F4FF40076002D04DA31463846B2
:105E9000FDF78CFD03E031463846FDF789FD6D00C6
:105EA000FFF7C6FF641CE4B2202CEDD3BDE8F081FF
:105EB00010B504464FF040431046FFF7DAFF43EABF
:105EC00000730846FFF7D5FF43EA80632046FFF7DB
:105ED000D0FF43EA006040EA024040EA012020434C
:105EE000BDE81040C9E708B501210820FDF713FF00
:105EF00010208DF803004FF44070ADF8000003202F
:105F00008DF8020069461348FDF7E1FCFFF7A3FF97
:105F1000002211461046FFF7CBFF00221146104623
:105F2000FFF7C6FF08BD70B504460D4616460121B1
:105F30000748FDF73BFDFFF78EFF32462946204616
:105F4000FFF7B6FF324629462046BDE87040AFE76E
:105F500000080140000C0140374A012809D00228FE
:105F60000CD004280FD0082812D102211046FDF7CA
:105F70001FBD4FF400411046FDF71ABD4FF480419C
:105F80001046FDF715BD4FF400611046FDF710BD3A
:105F9000704738B501210820FDF7BDFE03208DF8BC
:105FA000020010208DF80300C002ADF80000224C62
:105FB00069462046FDF78BFC4FF48041ADF8001098
:105FC00069462046FDF783FCE114ADF800106946F0
:105FD0002046FDF77CFC0221ADF800106946204602
:105FE000FDF775FC0120FFF7B7FF0220FFF7B4FFB4
:105FF0000420FFF7B1FF0820FFF7AEFF38BD0E4ABF
:10600000012809D002280CD004280FD0082812D16A
:1060100002211046FDF7CABC4FF400411046FDF7BF
:10602000C5BC4FF480411046FDF7C0BC4FF4006181
:106030001046FDF7BBBC7047000C014070B586B040
:106040004FF4FA7501210920FDF765FE01210220B8
:10605000FDF76CFE01211D48FDF7CAFC01211C481B
:10606000FDF7C6FC3020ADF8140018208DF817009D
:1060700003208DF8160005A91648FDF728FC6020BE
:10608000ADF804000124ADF80640ADF80A50002038
:10609000ADF80C00104E01A93046FEF73EF808217D
:1060A0003046FEF7D5FBADF80640ADF80A5001A921
:1060B0003046FEF76BF808213046FEF7CFFB012192
:1060C0003046FEF7C2FA06B070BD00000002300094
:1060D00000081A00000C0140000400402DE9FF47B1
:1060E00006460C460025002E07D0200005D0DFF81C
:1060F000F482BD4FDFF8F49275E04FF0FF3004B04A
:10610000BDE8F0877019407813286AD2DFE800F004
:106110006969696969696969696969696947505F34
:106120004C0A2C0021783970B1A002F0F5FD3878C6
:10613000012810D0002211461046FFF7F4FE00207F
:1061400088F8000000214846FEF7A6FC00214846DA
:10615000FEF7A0FC45E00021FE220846FFF7E3FE23
:10616000012088F800003CE0D4F80110C7F80110C5
:10617000A6A002F0D1FD98F80000012831D1D7F88F
:1061800001004FF6FF7100EB800001EA80014846F4
:10619000FEF782FC00214846FEF77CFC21E02178D6
:1061A0009FA002F0B9FD1CE0A0A002F0B5FD18E030
:1061B000A17962792379A068CDE90032CDE9021096
:1061C000E378A27821889EA002F0A6FD09E0A7A0AE
:1061D00002F0A2FDAAA002F09FFD2178ACA002F07F
:1061E0009BFD6D1CEDB23078A8428BD8002086E76D
:1061F000704711217C4802F0F4BB7A484168491C81
:1062000041607047774840687047012080F31388E9
:10621000A4480168A44A01F4E06111430160BFF39E
:10622000408FFEE710B5714C01212046FEF75AFC65
:10623000002809D001212046FEF760FCFFF7DDFFB2
:106240009A480178491C017010BD7FB541F61F4581
:10625000092401210220FDF769FD01210220FDF73B
:1062600065FDADF80850ADF804400024ADF80A40D3
:10627000ADF806405D4D01A92846FDF715FF012246
:1062800011462846FEF7FBF91D218DF800108DF808
:10629000014002218DF8021001218DF8031068469B
:1062A000FDF703F801212846FEF7CFF97FBD38B589
:1062B000002000907E4C40F2255529462046FEF7EE
:1062C000BDFD00280BD029462046FEF7D7FD20460D
:1062D000FEF740FD00900121684600F0EDF838BD62
:1062E0002DE9F04105460E460024002D01D0704FE7
:1062F0001DE04FF0FF30BDE8F081295D3846FEF724
:1063000025FD80213846FEF78EFD0028F9D0022CAD
:106310000CD3285DFF2809D155213846FEF716FD1C
:1063200080213846FEF77FFD0028F9D0641CB44276
:10633000E3D33046DFE730B587B001210420FDF715
:10634000EAFC01214804FDF7F1FC01210846FDF7B4
:10635000E2FC0424ADF8184018208DF81B0003203F
:106360008DF81A00534D06A92846FDF7B0FA08210A
:10637000ADF818108DF81B4006A92846FDF7A7FABE
:106380004FF4165002900024ADF80C40ADF80E40CA
:10639000ADF81040ADF814400C20ADF81200444D9B
:1063A00002A92846FEF7F6FB012240F225512846B5
:1063B000FEF777FC01212846FEF767FC40212846BE
:1063C000FEF738FD26208DF804008DF805400120E9
:1063D0008DF806008DF8070001A8FCF766FF07B0EE
:1063E00030BD00007C00002094000020000400402C
:1063F0004576743A204556454E545F4C45445F4FB0
:106400006E4F6666202564200A0000004576743AC7
:106410004556454E545F6C696768742025640A00D0
:10642000525353492025640A000000005452414E43
:1064300053504152454E545F44415441200A00009C
:10644000574946495F4E5450203A205B25642D251C
:10645000642D256420253032643A253032643A2593
:106460003032645D5B25645D200A00004D4F445569
:106470004C4520494E464F202E2E2E0A000000008B
:10648000574946204D4F44554C45202E2E2E0A008C
:106490006D6F64756C6554797065203A205B256476
:1064A0005D200A000CED00E00400FA056D000020FC
:1064B000004400400008014070B50C464FF0FF3525
:1064C00000280BD001462246F64802F021FAA042ED
:1064D00003D0F5A002F020FC284670BDF9A002F020
:1064E0001BFC284670BD10B5002807D000210160B4
:1064F0004160FF2101704170002010BDF9A002F041
:106500000BFC4FF0FF3010BD70B504460D46002C5B
:1065100016D04FF46371FE4802F063FAFC482A4635
:106520002146801C02F044FAFA4CA4F89B5A012040
:1065300084F81607FFF766FEC4F89D0A002070BDB8
:10654000F5A002F0E9FB4FF0FF3070BDF8B505464D
:106550000C461746002D4BD0F4B3EFB3287804F166
:106560000106C00710D02178112088552078401CE2
:10657000207001200246002100906B1C084602F0AA
:10658000CCF800B101203870287840070CD521786C
:10659000132088552078401C2070EA7800210120C3
:1065A00002F01FF8C7F80500287800070CD52178FD
:1065B000142088552078401C20702A790021012061
:1065C00002F00FF8C7F809002878C0060ED5217828
:1065D00015208855207800E00AE0401C20706A7978
:1065E0000021012001F0FDFFC7F80D000020F8BDDB
:1065F000CFA002F091FB4FF0FF30F8BD70B504461C
:106600000D460020002C28D0002D26D02978227895
:10661000914203D0D1A002F07FFB0120D5F80510F4
:10662000D4F80520914203D0D2A002F075FB0120DE
:10663000D5F80910D4F80920914203D0D2A002F075
:106640006BFB0120D5F80D10D4F80D20914203D03A
:10665000D2A002F061FB012070BDD5A002F05CFB6E
:106660004FF0FF3070BD38B505460C46002D24D0E4
:106670001CB3002020706D1C002115F8010C009047
:1066800023460122084602F089F80121204601F044
:1066900091FF6A680021012001F09FFFA070AA68A5
:1066A0000021012001F099FFE070EA68002101203B
:1066B00001F093FF2071002038BDC7A002F02CFB31
:1066C0004FF0FF3038BD2DE9F05F0C460A9D1746AC
:1066D0001E4694F800804FF0FF3B002C03D016B10B
:1066E0000DB130B150E0C8A002F016FB5846BDE82D
:1066F000F09FD1481721824602F073F94046DFF837
:1067000014824FF00009012806D04FF0030A022836
:106710000ED0052838D120E0C74A51466132601CAE
:10672000FFF714FF012088F80000C5F800902BE067
:10673000C1495C3101F11600FFF795FF08B15846D9
:10674000D5E7BD485C300168C6F80110007970716A
:1067500086F800A00620286016E07A1E611CB74863
:1067600002F026F97F1EC8F80977B348102198F87F
:10677000A12A401C115498F8A10A401C88F8A10ACB
:1067800088F800A0C5F800900020B0E72DE9F0439C
:10679000ADF5617D06468946174698460025B9F154
:1067A000000F25D0B8F1010F2BD0781D84B22346FD
:1067B0002A463946A2A002F0AFFAFF208DF8000069
:1067C0008DF80100200A8DF802008DF80340307921
:1067D000401C8DF8040070798DF8050000208DF8BC
:1067E00006008DF807800820B8F1010F0ED018E0E0
:1067F0009DA002F091FA4FF0FF300DF5617DBDE8EC
:10680000F083357AE819801D84B2D0E78DF80850FE
:106810000DF109002A4606F1090102F0C9F805F157
:1068200009006D4627B128443A46494602F0C0F8AF
:10683000211D684601F040FD2919C870211D6846D8
:10684000FFF74EFD0146002905DA8DA002F064FA3B
:106850006FF00100D1E70020CFE77FB505460C4679
:106860001646002C1CD06846FFF73DFE05208DF82B
:1068700004002849D1F80D37581CC1F80D078DF8D0
:1068800005308DF808500B2001F028FDADF802000E
:10689000324621460DF1090002F08AF80F21FBE093
:1068A0000EE10000940C00204552523A20466169E6
:1068B0006C656420746F2072625772697465200A77
:1068C000000000004552523A2067697A50757444BE
:1068D0006174612062756620697320656D707479DA
:1068E000200A00004552523A2067697A50726F744C
:1068F0006F636F6C48656164496E69742068656197
:106900006420697320656D707479200A00000000AE
:10691000BD070020A80000204552523A206461744F
:106920006120697320656D707479200A0000000091
:1069300067697A44617461506F696E743245766537
:106940006E74204572726F72202C20496C6C6567E2
:10695000616C20506172616D0A00000076616C7597
:10696000654C45445F4F6E4F6666204368616E67B5
:1069700065640A0076616C75654C45445F5220433E
:1069800068616E6765640A0076616C75654C4544A4
:106990005F47204368616E6765640A0076616C75C5
:1069A000654C45445F42204368616E6765640A0038
:1069B00067697A436865636B5265706F72742045CE
:1069C00072726F72202C20496C6C6567616C20506C
:1069D0006172616D0A00000067697A4461746150F8
:1069E0006F696E7473325265706F72744461746152
:1069F000204572726F72202C20496C6C6567616C47
:106A000020506172616D0A0067697A50726F746F0D
:106A1000636F6C49737375656450726F63657373EC
:106A2000204572726F72202C20496C6C6567616C16
:106A300020506172616D0A00490B00202D04002076
:106A40006C656E203D202564202C20734469644CC5
:106A5000656E203D202564202C646174615F6C6547
:106A60006E203D2025640A005B4552525D20206463
:106A7000617461204973204E756C6C200A0000001F
:106A800075617274207772697465206572726F72B5
:106A9000202564200A000000684601F00DFC8DF8F6
:106AA0000E000F216846FFF71BFC0446002C0DDA90
:106AB0002146F7A002F030F96FF0010004B070BD7C
:106AC000FAA002F029F94FF0FF30F7E70F216846EE
:106AD000FFF71AFD2046F1E72DE9F0410746FFF7E1
:106AE00091FB0446FB4938468846FFF787FDF94D80
:106AF000163D012811D1F8A002F00EF929463846BA
:106B0000FFF7B1FD20B9052229460420FFF7A5FEB5
:106B100011223946404601F04BFFF548B4FBF0F135
:106B200000FB1140002816D1F24EB068A04212D0EE
:106B3000F1A002F0F1F829463846FFF794FD20B99C
:106B4000052229460420FFF788FE112239464046D7
:106B500001F02EFFB460BDE8F0812DE9F74F82B05F
:106B60000C4693460026002502986F1E002812D07E
:106B7000200010D0BBF1000F0DD0029801F055FE9F
:106B800000F0FF08B8F1000F0CD04FF0FF094FF0F4
:106B9000020AD84F51E0DEA002F0BEF8384605B038
:106BA000BDE8F08F3846FAE7012201A9029801F00A
:106BB00066FEE8B37878FF2803D19DF80410FF291A
:106BC00002D0FF2817D01AE0387858B1B8880428C6
:106BD0002AD9A84228D084F8009084F80190A7F818
:106BE00004A021E084F8009084F80190A7F804A0A4
:106BF0000120387018E09DF80400552814D038782A
:106C0000012811D1B8889DF804102154401C80B28D
:106C1000B880042808D92046408801F05FFB001D99
:106C200085B2B888A8420AD09DF80400787000E0C8
:106C300002E0B878401CB870761C4645B4DBB988D1
:106C400004291AD9A94218D1204601F035FBBA8887
:106C5000A11811F8011C81420CD12A462146204678
:106C600001F0A6FEABF8005000203870B880B87074
:106C7000787094E76FF0010091E701208FE710B57D
:106C8000AF4C94F81607002813D0AEA002F044F8D9
:106C9000B4F89B1A04F21770FFF722FBB4F89B1AA2
:106CA000814202D0AFA002F037F8FFF7ABFAC4F888
:106CB0009D0A10BD10B5B14900280CD009790079A2
:106CC000491C814205D1AD484FF46371801E01F02B
:106CD00088FE002010BDAFF2C03002F01DF84FF06A
:106CE000FF3010BD3EB5002820D0016800914068FB
:106CF00001909DF80400401C8DF80400052001F06F
:106D0000EDFAADF802000921684601F0D5FA8DF8D8
:106D1000080009216846FFF7E3FA0446002C03DA6D
:106D200021465BA001F0F8FF20463EBD94A001F093
:106D3000F3FF4FF0FF303EBD10B5814C94F81607BD
:106D400001281AD194F81507022817D2FFF75AFA2A
:106D5000D4F89D1A401AC8280FD9FFF753FA04F245
:106D6000157401462378D4F8882390A001F0D4FF4D
:106D7000FFF785FF2078401C207010BD7F48BDE8DC
:106D800010404FF46371801E01F02BBE10B59EB011
:106D90000446002C4CD001A8FFF7A5FB02208DF87B
:106DA000080060798DF809008AA003C8CDE90301C5
:106DB0008BA003C8CDE905018CA003C8CDE909016A
:106DC0008DA003C8CDE9070120228EA10BA801F0F8
:106DD000EFFD202294A10DF1560001F0E9FD002005
:106DE000CDF84E00CDF852009DF8550040F002005D
:106DF0008DF85500002001F071FAADF84C006F20BD
:106E000001F06CFAADF80600732101A801F054FA04
:106E10008DF87600732101A8FFF762FA0446002C72
:106E200003DA21461AA001F077FF20461EB010BDFC
:106E300086A001F071FF4FF0FF30F7E73EB5044642
:106E40000D46002C22D06846FFF74DFB12208DF82E
:106E5000040060798DF80500062001F03FFAADF8D6
:106E600002008DF808500A21684601F025FA8DF8D5
:106E700009000A216846FFF733FA0446002C03DABA
:106E8000214603A001F048FF20463EBDF6E0000089
:106E90004552523A20756172742077726974652088
:106EA0006572726F72202564200A000067697A5249
:106EB00065706F727444617461204572726F7220E4
:106EC0002C20496C6C6567616C20506172616D0AA1
:106ED00000000000BB0B00206368616E6765642CD6
:106EE000207265706F727420646174610A00000022
:106EF000C027090084000020496E666F3A203630B2
:106F00003053207265706F727420646174610A007E
:106F100067697A50726F746F636F6C4765744F6EF8
:106F2000655061636B6574204572726F72202C200E
:106F3000496C6C6567616C20506172616D0A00007C
:106F4000A80000205761726E696E673A2074696DFF
:106F5000656F75742C20726573656E64206461744E
:106F600061200A004552523A20726573656E6420B2
:106F700064617461206572726F720A00BF0700203D
:106F80004552523A2067697A50726F746F636F6C22
:106F9000436F6D6D6F6E41636B2064617461206936
:106FA0007320656D707479200A0000005761726E5D
:106FB000696E673A67697A50726F746F636F6C526B
:106FC0006573656E644461746120256420256420C6
:106FD00025640A003030303030303034000000009A
:106FE0003030303030303032000000003033303359
:106FF000303038380000000030333031303130303C
:10700000000000006139623537363839666335640F
:107010003434636261663062333262636332616664
:1070200063643839000000006239346366613034CB
:1070300032653431346465663934646434373762B8
:1070400034306263376434340000000067697A507A
:10705000726F746F636F6C476574446576696365BE
:10706000496E666F204572726F72202C20496C6CDD
:107070006567616C20506172616D0A00F6A001F0D5
:107080004BFE4FF0FF3000E710B5002825D0FD493A
:1070900082680A60C2684A60028A0A81807C8872BB
:1070A000A1F62534B4F8250B01F018F9A4F8250B46
:1070B000D4F82D0B01F01FF9C4F82D0B94F8CF2A4A
:1070C00004F52D600E21115494F8CF0A401C84F869
:1070D000CF0A04202070002010BDEBA001F01CFEA0
:1070E0004FF0FF3010BD70B5FFF78CF804464FF439
:1070F0001675FFF787F8001BA842FAD9BDE8704063
:10710000FFF783B82DE9F0410546002D33D02889DB
:1071100001F0E4F82881DFF88483E14E022798F833
:10712000000006F6B924C0F38001287AC0F380027B
:10713000914241D042074FF0000122D5C0070AD04A
:1071400096F8B80A015596F8B80A401C86F8B80AAD
:10715000D4A001F0E1FD287A80072DD596F8B81A61
:107160000120085596F8B80A401C86F8B80AD5A040
:1071700001F0D2FD20E0DAA001F0CEFD4FF0FF30AB
:10718000E9E4C0070AD096F8B80A015596F8B80A9B
:10719000401C86F8B80AC3A001F0BEFD287A80071B
:1071A0000AD596F8B80A075596F8B80A401C86F82A
:1071B000B80AD7A001F0B0FD98F80000297AC0F312
:1071C000C003C1F3C00293421ED062F3C30088F82B
:1071D000000008070CD596F8B81A0320085596F851
:1071E000B80A401C86F8B80AD0A001F095FD0BE063
:1071F00096F8B81A0420085596F8B80A401C86F884
:10720000B80AD2A001F088FD98F80000297AC0F3EE
:107210000013C1F3001293421ED062F3041088F8E9
:107220000000C8060CD596F8B81A0520085596F83F
:10723000B80A401C86F8B80ACCA001F06DFD0BE03E
:1072400096F8B81A0620085596F8B80A401C86F831
:10725000B80ACEA001F060FD98F80000297AC0F3CA
:107260004013C1F3401293421ED062F3451088F8D8
:10727000000088060CD596F8B81A0720085596F82D
:10728000B80A401C86F8B80AC9A001F045FD0BE019
:1072900096F8B81A0820085596F8B80A401C86F8DF
:1072A000B80ACAA001F038FD98F80100697AC0F365
:1072B000C003C1F3C00293421ED062F3C30088F83A
:1072C000010008070CD596F8B81A0B20085596F857
:1072D000B80A401C86F8B80AC4A001F01DFD0BE0F6
:1072E00096F8B81A0C20085596F8B80A401C86F88B
:1072F000B80AC5A001F010FD98F80100697AC0F342
:107300000013C1F3001293421ED062F3041088F8F8
:107310000100C8060CD596F8B81A0920085596F849
:10732000B80A401C86F8B80ABFA001F0F5FC0BE0D3
:1073300096F8B81A0A20085596F8B80A401C86F83C
:10734000B80AC0A001F0E8FC96F8B81A0D2008555C
:1073500096F8B80A401C86F8B80A687A00F0070167
:1073600086F8241BBEA001F0D7FC3770002007E789
:1073700010B544484FF46171C730016000F110014D
:10738000C16001F035FA48B1B9A001F0C5FCBDE813
:10739000104040F67231424801F023BBB9A001F021
:1073A000BBFCF4E7F0B587B0064600243C4D092746
:1073B000052E4DD2DFE806F0032C4F4E4D0001A8FC
:1073C000FFF791F80B208DF80800D5F80D07411C48
:1073D000C5F80D178DF80900052000F07FFFADF806
:1073E0000600092101A800F067FF8DF80C000921B3
:1073F00001A8FEF775FF0446002C04DA2146AFF21F
:10740000705001F089FC092101A8FFF77DF8CDE15A
:1074100004A8FFF768F88DF81470D5F80D07411C23
:10742000C5F80D178DF815008DF81860062000F0CE
:1074300055FFADF812000A2104A800F03DFF8DF8B9
:1074400019000A2104A8FEF74BFF0446002C23E193
:10745000A9E17FE155E12AE167697A50726F746FA3
:10746000636F6C4572726F72436D64204572726F08
:1074700072202C20496C6C6567616C2050617261D0
:107480006D0A0000CD0B00204552523A204E545058
:1074900020697320656D707479200A008A000020CD
:1074A000A80000204F6E426F617264696E673A20D7
:1074B000536F66744150206F7220576562206D6F64
:1074C00064650A004F6E426F617264696E673A20AC
:1074D0004169724C696E6B206D6F64650A00000033
:1074E00067697A50726F746F636F6C4D6F64756CFF
:1074F00065537461747573204572726F72202C200D
:10750000496C6C6567616C20506172616D0A0000A6
:107510004F6E426F617264696E673A205374617492
:10752000696F6E206D6F64650A00000057694669D7
:10753000207374617475733A20696E2062696E6499
:10754000696E67206D6F64650A00000057694669BF
:10755000207374617475733A206F75742062696E5C
:1075600064696E67206D6F64650A0000576946693B
:10757000207374617475733A20636F6E6E65637403
:10758000656420726F757465720A000057694669F8
:10759000207374617475733A20646973636F6E6EDF
:1075A000656374656420726F757465720A0000000B
:1075B00057694669207374617475733A20636F6EFE
:1075C0006E6563746564206D326D0A0057694669A3
:1075D000207374617475733A20646973636F6E6E9F
:1075E0006563746564206D326D0A000057694669F1
:1075F000207374617475733A2061707020636F6ECC
:107600006E6563740A0000005769466920737461EF
:107610007475733A206E6F2061707020636F6E6EA8
:107620006563740A0000000057694669207374613D
:107630007475733A20696E2074657374206D6F647D
:10764000650A000057694669207374617475733A5E
:10765000206F75742074657374206D6F64650A0003
:1076600052535349206973202564200A000000000A
:107670007262437265617465204661696C64200AB8
:107680000000000072624372656174652053756387
:1076900063657373200A000004DA2146AFF6100018
:1076A00001F03AFB0A2104A8FEF72EFF7EE004A8B1
:1076B000FEF719FF8DF81470D5F80D07411CC5F8B9
:1076C0000D178DF815008DF81860062000F006FEE5
:1076D000ADF812000A2104A800F0EEFD8DF81900A3
:1076E0000A2104A8FEF7FCFD0446002C04DA21461A
:1076F000AFF6640001F010FB0A2104A8FEF704FFB6
:1077000054E001A8FEF7EFFE13208DF80800D5F82D
:107710000D07411CC5F80D178DF80900052000F074
:10772000DDFDADF80600092101A800F0C5FD8DF8CA
:107730000C00092101A8FEF7D3FD0446002C04DA51
:107740002146AFF6B40001F0E7FA092101A8FEF7DF
:10775000DBFE2BE001A8FEF7C6FE15208DF8080021
:10776000D5F80D07411CC5F80D178DF80900052047
:1077700000F0B4FDADF80600092101A800F09CFD61
:107780008DF80C00092101A8FEF7AAFD0446002C83
:1077900004DA2146AFF6081001F0BEFA092101A86B
:1077A000FEF7B2FE02E0F8A001F0B6FA07B02046FC
:1077B000F0BD0EB56846FEF796FE17208DF8040062
:1077C000F749D1F80D07421CC1F80D278DF80500C7
:1077D000052000F083FDADF802000921684600F0A5
:1077E0006BFD8DF8080009216846FEF779FD01461A
:1077F000002902DAEBA001F08FFA09216846FEF7B2
:1078000083FE0EBD0EB56846FEF76DFE21208DF895
:107810000400E349D1F80D07421CC1F80D278DF88B
:10782000050000208DF80800062000F057FDADF897
:1078300002000A21684600F03FFD8DF809000A2188
:107840006846FEF74DFD0146002902DAD5A001F099
:1078500063FA0A216846FEF757FE0EBD10B50028F0
:1078600015D000F108014122D64801F0A1F8CC481A
:107870000F2200F6E72190F8E63A5A5490F8E61AFB
:10788000491C80F8E61A05210170002010BDCEA029
:1078900001F042FA4FF0FF3010BD0EB5002000900D
:1078A000019002906846FEF71EFE052000F016FDCE
:1078B000ADF8020027208DF80400B94AD2F80D0770
:1078C000411CC2F80D178DF805000921684600F02B
:1078D000F3FC8DF8080009216846FEF701FD01461A
:1078E000002902DABCA001F017FA09216846FEF768
:1078F0000BFE0EBDF0B5C5B00C46002847D00146C2
:10790000224604A801F054F8BDF8100000F0E6FC8F
:107910000546BDF8120000F0E1FC0646231F324682
:107920002946B54801F0F8F9B449681E01EB002278
:10793000201F81B204AF381DFEF7F0F9A148221FC5
:107940004B30391D0446FDF7ABFFB5423AD100215B
:10795000009101910291039169462046FDF7F7FFDE
:10796000A7A001F0D9F9974810226946AB3001F081
:107970004AF8944CA33468B1ADA001F0CDF91821B8
:10798000204601F02EF86FF0010045B0F0BD4FF039
:10799000FF30FAE7B0A001F0BFF9BF4D182029462B
:1079A000FEF76DF987494EF6EE604331A1F86000AD
:1079B0002A4618212046FEF7B1F9B8A001F0ACF92B
:1079C000FEF723FC0020E0E7F0B599B00D466E46C7
:1079D00000283CD005F109018CB2FF218DF8001080
:1079E0008DF80110210A8DF80210F61C8DF8034065
:1079F0001B218DF804106A4AD2F80D174B1CC2F8EF
:107A00000D378DF8051000278DF80670290A8DF8BE
:107A100008108DF80950F61D01462A46304600F040
:107A2000C7FF3544012028706F70211D684600F0A3
:107A300043FCA870211D6846FEF752FC41B20029A4
:107A400008DA65A001F068F9B81E19B0F0BD4FF072
:107A5000FF30FAE798A001F05FF90020F5E72DE983
:107A6000F04188B005460024661E002D16D0E87847
:107A70002978AA7840EA01616878524F000440EA08
:107A800002200143433779604FF4D048414507D97C
:107A900090A001F041F9304608B068E43046FBE7B9
:107AA0009AA001F039F97868786654494046FEF7A3
:107AB000E6F86879297900EB01201FFA80F8414641
:107AC0009BA001F029F94246A91D684600F070FF0D
:107AD00000256E4630194178305D00F018FC7919A8
:107AE00081F86800A41CE4B26D1CADB2102DF1D376
:107AF00094A001F011F933484B30FDF745FB4146A6
:107B00006846FFF761FF014629B193A001F004F92F
:107B10006FF00100C0E70020BEE72DE9F047ADF5AA
:107B2000647D07460DF10C08002502950195A946D4
:107B3000002F0CD0FFF700F9194E02AA711C06F6AF
:107B4000EC30FFF70AF858B1801C18D00EE28EA076
:107B500001F0E2F84FF0FF300DF5647DBDE8F087ED
:107B600093A001F0D9F8741CDFF834A020790AF151
:107B7000090A142804D004DC122803D222E1FFE110
:107B800088E12AE13FE100004552523A204366670E
:107B90004D6F6465206572726F72210A00000000EB
:107BA000A80000204552525B4E54505D3A2075614A
:107BB0007274207772697465206572726F72202505
:107BC00064200A00D90B00204E54502069732065B0
:107BD0006D707479200A00004552524F523A207558
:107BE000617274207772697465206572726F722099
:107BF0002564200A00000000EC91000800980008AD
:107C00004D44352043616C63756C61746520537518
:107C10006363657373202C2057696C6C204368651F
:107C2000636B20546865204D4435202E2E0A2000B9
:107C30004D64355F4361636C20436865636B204628
:107C400061696C64202C4D4355204F54412046619E
:107C5000696C640D0A2000004D443520436865635B
:107C60006B2053756363657373202C53746F72615B
:107C700067652020524F4D205375636365737320F1
:107C80002C205772697465205570646174652046B4
:107C90006C61670A20000000002C0008537973749F
:107CA000656D2057696C6C20526573746172742E17
:107CB0002E2E200A000000004D43552052656164BD
:107CC0007920546F2055706461746520524F4D20A7
:107CD0000A00000055706461746546696C655369FB
:107CE0007A65204572726F72202C557064617465DC
:107CF000204661696C6564202C66696C6553697AFD
:107D000065203D202564200A000000005570646154
:107D1000746546696C6553697A65204C6567616C6A
:107D2000202C73697A65203D202564200A0000001C
:107D300046696C654D44356C656E20203D20256498
:107D400020000000474167656E745F4D4435496E01
:107D50006974200A0000000050726F5F4432575F60
:107D60005570646174655265616479204572726F03
:107D700072202C4572726F7220436F6465203D2023
:107D80002564200A0000000047697A776974734807
:107D9000616E646C65204572726F72202C20496C94
:107DA0006C6567616C20506172616D0A00000000B3
:107DB000476574204F6E65205061636B6574210ABE
:107DC00000000000DFE800F01F271F2B1F1F594E87
:107DD0001F1F591F59521F5D1FD2DFF82C831D280A
:107DE00073D008DC162848D018285AD0192877D024
:107DF0001C2808D16CE01F2869D022285BD02828D5
:107E00006AD02A287AD002212046FFF717F8BFA0AF
:107E100000F082FFAAE02046FEF7B8FFA6E0E27974
:107E2000A179C0A000F078FF01A8BDF8082000905B
:107E3000093A514603AB4846FEF745FC0028E9D114
:107E4000E37903A92046019AFEF7A0FCB9A00199A5
:107E500000F062FF4146BBA000F05EFFBBA000F057
:107E60005BFF83E02046FEF73DFF7FE02046FEF704
:107E700039FF2046FFF746F978E02046FEF71AFF63
:107E800074E02046FEF72EFFB3A000F045FFFFF799
:107E90002AF96BE02046FEF70DFFB4A000F03CFF8E
:107EA00064E02046FEF706FF2046FFF7EDF8B7A096
:107EB00000F032FF5AE02046FEF7FCFE2046FFF7B6
:107EC000CDFCB8A000F028FF50E025E008E03DE040
:107ED0002046FEF7EFFE49E02046FEF7EBFE45E0C8
:107EE000B7A000F019FF2046FEF7FCFEBDF8081011
:107EF00050460939FFF7B3FD38B100E030E0B5A0D6
:107F000000F00AFFFFF7C9FC30E0012188F80010FB
:107F1000B7A000F001FF29E0BDF8081000220939E0
:107F20005046FFF7E7FC81462046FEF7DBFEB9F13D
:107F3000000F1BD0294688F80050B64800F0ECFE30
:107F4000FFF7ABFCB4A000F0E7FE0FE02046FEF721
:107F5000C9FE294688F80050B3A000F0DDFE05E018
:107F60002046FEF7A7FEBAA000F0D6FE664C307899
:107F7000D33C06284BD2DFE800F04A0D19272F3DED
:107F8000701C0121FEF75AFFB8A000F0C5FE6FF08B
:107F90000100E1E535705C49112272392046FEF797
:107FA0009DF81721204600F01CFD30E03570564941
:107FB00001225039A1F16C000446FEF78FF8172119
:107FC000204600F00EFD22E03570D6F80927AD49B5
:107FD0002046FEF783F81AE035704B490C224F39E2
:107FE000A1F156000446FEF779F81721204600F06B
:107FF000F8FC0CE03570444941224339A1F14B00B3
:108000000446FEF76BF84121204600F0EAFC3846B2
:10801000FEF762FD00209FE530B5ADF5617D0A46B3
:10802000911D8CB200283AD0FF218DF800108DF8F8
:108030000110210A8DF802108DF8034005218DF8FA
:108040000410914DD5F80D174B1CC5F80D378DF860
:10805000051000218DF806108DF8071006218DF807
:10806000081001460DF1090000F0A2FC211D684630
:1080700000F022F90DEB0401C870211D6846FEF7DF
:108080002FF90146002902DA804800F045FE211D43
:108090006846FEF739FA00200DF5617D30BD7CA001
:1080A00000F03AFE4FF0FF30F6E70EB500200090EA
:1080B000019002906846FEF716FA052000F00EF9CE
:1080C000ADF8020029208DF804006F4AD2F80D07A0
:1080D000411CC2F80D178DF805000921684600F013
:1080E000EBF88DF8080009216846FEF7F9F801461B
:1080F000002903DAAFF2205000F00EFE0921684695
:10810000FEF702FA0EBD00001C0C00204552523A48
:1081100020636D6420636F6465206572726F7221E5
:108120000A000000666C6167202578202578200A07
:108130000000000061636B4C656E203D2025640AE1
:108140000000000070203D2025730A0041636B444D
:10815000617461203A200A007265706F72743A4D42
:108160004355207265626F6F74210A0041636B2072
:1081700050524F44554354494F4E5F4D4F44452054
:1081800073756363657373200A00000041636B209D
:108190004745545F5554542073756363657373206A
:1081A0000A00000041636B204745545F4D6F6475C2
:1081B0006C652073756363657373200A00000000AB
:1081C000434D445F41534B5F424947444154412032
:1081D0000A0000005570646174652041736B20488B
:1081E000616E646C65204661696C6564200A0000FC
:1081F00053797374656D20496E204F5441204D6F43
:1082000064652042757379466C6167203D20256462
:10821000200A00003092000853797374656D20477E
:108220006F204F6E200A000053797374656D204FE4
:108230005441204D6F6465204F76657220427573FE
:1082400079466C6167203D202564200A000000000B
:1082500057696669204D6F64756C652057696C6C51
:108260002052657374617274200A00004552523ABC
:1082700020636865636B2073756D206572726F7221
:10828000210A00002D040020A8000020906E0008A4
:108290005B4552525D2067697A77697473506173E8
:1082A000737468726F756768446174612045727297
:1082B0006F72200A0000000010B503460020002B5A
:1082C00003D011B10222491E05E0002010BD9C5CC4
:1082D0002044C0B2521C8A42F9D310BD01B581B00E
:1082E0009DF805008DF800009DF804008DF8010050
:1082F000BDF800000CBD010600F47F4241EA0221F6
:1083000000F47F0241EA122141EA1060704710B583
:108310000022A0F13004092C01D8E3B20CE0A0F156
:108320004104052C02D83738C3B205E0A0F161043E
:10833000052C01D85738C3B2A1F13000092801D863
:10834000C2B20CE0A1F14100052802D83739CAB207
:1083500005E0A1F16100052801D85739CAB202EB46
:108360000310C0B210BD70B505460024284600F0C9
:1083700043FB3DB9601E70BD295D302901D000204E
:1083800070BD641C8442F7D3012070BD30B56424F5
:1083900001291FD002291DD0B0FBF4F3B0FBF4F586
:1083A00004FB1500491C1A2461430A24B1FBF4F1B3
:1083B00000EB900000EB93005B4200EB43000844AD
:1083C0001044401E072100280DDB90FBF1F201FB59
:1083D000120030BD401EB0FBF4F3B0FBF4F504FB1B
:1083E00015000C31DEE790FBF1F201FB1200C01D1D
:1083F00030BD81070CD1642190FBF1F201FB120129
:1084000041B94FF4C87190FBF1F201FB120008B1C1
:10841000002070470120704710B5FFF7EAFF10B148
:108420004FF4B77010BD40F26D1010BD2DE9F0474C
:1084300090B007460E4640F2B27530225B4901A863
:1084400000F0B6FA344604F5E14411E02846FFF79F
:10845000E3FF40F2A3214143B4EBC11F0AD3A0EBD9
:10846000001000EB4000C0EB001004EBC0146D1CCA
:10847000002CEBD11FFA85FAADF834A000254FF09F
:108480001D090DF1040816E05046FFF7B2FF08B1D0
:10849000CDF8089058F8250040F2A3214143B4EBF1
:1084A000C11F0AD3A0EB001000EB4000C0EB00108E
:1084B00004EBC0146D1C002CE6D11C2002906D1C36
:1084C0008DF8365001203A494A4203E08C4203D3EA
:1084D0001444401C002CF9D18DF837004FF4616032
:1084E000B4FBF0F18DF83810B4FBF0F100FB114152
:1084F0003C20B1FBF0F18DF83910B4FBF0F100FB3A
:1085000011408DF83A00CDF83B600D9838600E9818
:108510007860BDF83C0038819DF83E00B87210B01C
:10852000BDE8F0872DE9F04707460E469046002447
:108530001AE016F8140006EB440191F8019000F0DF
:1085400031FA3038C5B2092D01D9ED1FEDB24846D8
:1085500000F028FA3038C0B2092801D9C01FC0B2D3
:1085600000EB05103855641C4445E2DBD8E730B514
:10857000002314E0CC5C302505EB141504F00F0447
:108580003034392D01D9ED1DEDB2392C01D9E41D5E
:10859000E4B200F8135000EB43056C705B1C93428F
:1085A000E8DB002100F8121030BD0000BC9100088B
:1085B0008051010030B50022002809D1401E30BD95
:1085C000845C8B1A034413F8015D85541C70521CA3
:1085D000B2EB510FF4D3002030BD511AB1FBF0F0D3
:1085E000704702FB0010704710B50446104600F0BB
:1085F00069FA214600F09EFABDE8104000F0DDBAAD
:1086000070B505460C46104600F0D2FA294600F037
:108610005FFA2146BDE8704000F002BA002809D098
:10862000420707D000F00700C0F10800884207D3D6
:1086300000207047082901D80020704701207047AA
:108640000120704770B506461446002C09D0F50885
:108650003046FFF7E3FF06F0070128B1012808D0F4
:1086600016E04FF0FF3070BD605D8B4018436055E1
:108670000EE0DEB2C1F10800C640FF22C2401A403F
:108680006019437833434370605D8A4010436055FE
:10869000002070BD2DE9F0430F468DB08046114695
:1086A0001E4600254FF0FF3900291AD0CEB14FEAFF
:1086B000D8043246684600F07BF9012E05D93146D0
:1086C0006846FFF777FF401C0FD039464046FFF75A
:1086D000A5FF6A46FF2308F0070140B101280DD02D
:1086E00019E048460DB0BDE8F0834846FAE7155D4D
:1086F000C7F10800CD40C3401D400CE0101945787B
:10870000C1F108003E1AC6F10806F3401D40125D93
:10871000CA40854015432846E4E72DE9F0438DB073
:108720008846149F05461646194600244FF0FF3927
:10873000002919D0C7B13A46684600F039F9012F2F
:1087400005D939466846FFF735FF401C0ED0314643
:108750004046FFF763FF01466B46FF2208F0070023
:1087600031B101290BD017E04846BBE74846B9E7CD
:108770005C5DC440C6F10800C24014400CE05919C9
:108780004C78C0F10801761AC6F10806F240144090
:108790005A5DC2408C4014432046A3E770B50E4694
:1087A000049D04461146002B09D03046FFF736FFE2
:1087B000014606F0070029B1012908D016E04FF064
:1087C000FF3070BD195D8540294319550EE0EEB2AA
:1087D000C0F10801CE40FF22CA402A4019194D7845
:1087E00035434D70195D824011431955002070BD0D
:1087F000002804D0C16841608160002070474FF0BC
:10880000FF307047002806D00021C16041608160C0
:108810000160002070474FF0FF307047002801D002
:10882000006870474FF0FF30704700B501460029DF
:1088300006D04A688868824205D14FF0000000BD2A
:108840004FF0FF3000BD02D2A0EB020000BD084691
:10885000FFF7E4FF4A688968511A401A00BD00B565
:108860000146002908D00846FFF7D8FF034608460E
:10887000FFF7DBFF181A00BD4FF0FF3000BD2DE9F8
:10888000F04104460F4615464FF0FF30002C17D03C
:10889000002F15D06068A168884213D22046FFF7E8
:1088A000C4FFA84203D82046FFF7BFFF0546616812
:1088B0002A46384600F07CF8606828446060284604
:1088C000BDE8F0812046FFF7A9FF6168E2688A1AD7
:1088D000801AA84208D92A46384600F069F860682C
:1088E000284460602846EBE72046FFF797FF616861
:1088F000E2688A1A861A3246384600F059F8E0686B
:108900006060AA1BB9192046FFF7B9FF3044D7E7CA
:108910002DE9F04104460F461546002C08D03FB122
:108920002046FFF79CFFA84205D86FF00100C7E77B
:108930004FF0FF30C4E76168A068814229D8204623
:10894000FFF76CFF0146A068E268821A8E1AB542F2
:1089500012D82A46394600F02BF8A0682844A060B7
:108960002046FFF75BFF0146E068A26801449142A0
:1089700000D1A0602846A3E73246394600F018F837
:10898000E068A060AA1BB9192046FFF7C1FF304478
:1089900096E72A46394600F00BF8A0682844A06004
:1089A00028468DE7A0F16101192900D820387047C9
:1089B00040EA01039B0703D009E008C9121F08C061
:1089C000042AFAD203E011F8013B00F8013B521EE1
:1089D000F9D27047D2B201E000F8012B491EFBD258
:1089E00070470022F6E710B513460A4604461946BA
:1089F000FFF7F0FF204610BD421C10F8011B0029B4
:108A0000FBD1801A704730B504460020034600E0D1
:108A10005B1C934203D2E05CCD5C401BF8D030BDC0
:108A2000F0B480EA0102D40F4200B2EB410F02D24F
:108A30000246084611464A0042D0C30DDDB2C1F3DA
:108A4000C752AD1A202D35DAC1F3160141F40002E8
:108A500004B15242C5F1200602FA06F12A4110443F
:108A6000B3EBD05F23D0C4B1012DA0EBC35009DC20
:108A7000F0BC4FF0004202EAC352DBB200F5000046
:108A800000F0E9B8400000F1807000EBC350A0F1A5
:108A9000807040EAD170490009E0490841EAC0719C
:108AA000A0EBC35000F50000400800EBC350F0BC41
:108AB00000F0C8B86142012202EB4101001BF6E759
:108AC000F0BC704781F00041AAE780F00040A7E7C2
:108AD00080EA010210B502F00043400022D04A00B3
